{
  "_format": "hh-sol-artifact-1",
  "contractName": "NewCollection",
  "sourceName": "contracts/NewCollection.sol",
  "abi": [
    {
      "inputs": [
        {
          "internalType": "string",
          "name": "name",
          "type": "string"
        },
        {
          "internalType": "string",
          "name": "symbol",
          "type": "string"
        },
        {
          "internalType": "address",
          "name": "initialOwner",
          "type": "address"
        }
      ],
      "stateMutability": "nonpayable",
      "type": "constructor"
    },
    {
      "inputs": [],
      "name": "ERC721EnumerableForbiddenBatchMint",
      "type": "error"
    },
    {
      "inputs": [
        {
          "internalType": "address",
          "name": "sender",
          "type": "address"
        },
        {
          "internalType": "uint256",
          "name": "tokenId",
          "type": "uint256"
        },
        {
          "internalType": "address",
          "name": "owner",
          "type": "address"
        }
      ],
      "name": "ERC721IncorrectOwner",
      "type": "error"
    },
    {
      "inputs": [
        {
          "internalType": "address",
          "name": "operator",
          "type": "address"
        },
        {
          "internalType": "uint256",
          "name": "tokenId",
          "type": "uint256"
        }
      ],
      "name": "ERC721InsufficientApproval",
      "type": "error"
    },
    {
      "inputs": [
        {
          "internalType": "address",
          "name": "approver",
          "type": "address"
        }
      ],
      "name": "ERC721InvalidApprover",
      "type": "error"
    },
    {
      "inputs": [
        {
          "internalType": "address",
          "name": "operator",
          "type": "address"
        }
      ],
      "name": "ERC721InvalidOperator",
      "type": "error"
    },
    {
      "inputs": [
        {
          "internalType": "address",
          "name": "owner",
          "type": "address"
        }
      ],
      "name": "ERC721InvalidOwner",
      "type": "error"
    },
    {
      "inputs": [
        {
          "internalType": "address",
          "name": "receiver",
          "type": "address"
        }
      ],
      "name": "ERC721InvalidReceiver",
      "type": "error"
    },
    {
      "inputs": [
        {
          "internalType": "address",
          "name": "sender",
          "type": "address"
        }
      ],
      "name": "ERC721InvalidSender",
      "type": "error"
    },
    {
      "inputs": [
        {
          "internalType": "uint256",
          "name": "tokenId",
          "type": "uint256"
        }
      ],
      "name": "ERC721NonexistentToken",
      "type": "error"
    },
    {
      "inputs": [
        {
          "internalType": "address",
          "name": "owner",
          "type": "address"
        },
        {
          "internalType": "uint256",
          "name": "index",
          "type": "uint256"
        }
      ],
      "name": "ERC721OutOfBoundsIndex",
      "type": "error"
    },
    {
      "inputs": [
        {
          "internalType": "address",
          "name": "owner",
          "type": "address"
        }
      ],
      "name": "OwnableInvalidOwner",
      "type": "error"
    },
    {
      "inputs": [
        {
          "internalType": "address",
          "name": "account",
          "type": "address"
        }
      ],
      "name": "OwnableUnauthorizedAccount",
      "type": "error"
    },
    {
      "anonymous": false,
      "inputs": [
        {
          "indexed": true,
          "internalType": "address",
          "name": "owner",
          "type": "address"
        },
        {
          "indexed": true,
          "internalType": "address",
          "name": "approved",
          "type": "address"
        },
        {
          "indexed": true,
          "internalType": "uint256",
          "name": "tokenId",
          "type": "uint256"
        }
      ],
      "name": "Approval",
      "type": "event"
    },
    {
      "anonymous": false,
      "inputs": [
        {
          "indexed": true,
          "internalType": "address",
          "name": "owner",
          "type": "address"
        },
        {
          "indexed": true,
          "internalType": "address",
          "name": "operator",
          "type": "address"
        },
        {
          "indexed": false,
          "internalType": "bool",
          "name": "approved",
          "type": "bool"
        }
      ],
      "name": "ApprovalForAll",
      "type": "event"
    },
    {
      "anonymous": false,
      "inputs": [
        {
          "indexed": false,
          "internalType": "uint256",
          "name": "_fromTokenId",
          "type": "uint256"
        },
        {
          "indexed": false,
          "internalType": "uint256",
          "name": "_toTokenId",
          "type": "uint256"
        }
      ],
      "name": "BatchMetadataUpdate",
      "type": "event"
    },
    {
      "anonymous": false,
      "inputs": [
        {
          "indexed": false,
          "internalType": "uint256",
          "name": "_tokenId",
          "type": "uint256"
        }
      ],
      "name": "MetadataUpdate",
      "type": "event"
    },
    {
      "anonymous": false,
      "inputs": [
        {
          "indexed": true,
          "internalType": "address",
          "name": "previousOwner",
          "type": "address"
        },
        {
          "indexed": true,
          "internalType": "address",
          "name": "newOwner",
          "type": "address"
        }
      ],
      "name": "OwnershipTransferred",
      "type": "event"
    },
    {
      "anonymous": false,
      "inputs": [
        {
          "indexed": true,
          "internalType": "address",
          "name": "from",
          "type": "address"
        },
        {
          "indexed": true,
          "internalType": "address",
          "name": "to",
          "type": "address"
        },
        {
          "indexed": true,
          "internalType": "uint256",
          "name": "tokenId",
          "type": "uint256"
        }
      ],
      "name": "Transfer",
      "type": "event"
    },
    {
      "inputs": [
        {
          "internalType": "address",
          "name": "to",
          "type": "address"
        },
        {
          "internalType": "uint256",
          "name": "tokenId",
          "type": "uint256"
        }
      ],
      "name": "approve",
      "outputs": [],
      "stateMutability": "nonpayable",
      "type": "function"
    },
    {
      "inputs": [
        {
          "internalType": "address",
          "name": "owner",
          "type": "address"
        }
      ],
      "name": "balanceOf",
      "outputs": [
        {
          "internalType": "uint256",
          "name": "",
          "type": "uint256"
        }
      ],
      "stateMutability": "view",
      "type": "function"
    },
    {
      "inputs": [
        {
          "internalType": "uint256",
          "name": "tokenId",
          "type": "uint256"
        }
      ],
      "name": "burn",
      "outputs": [],
      "stateMutability": "nonpayable",
      "type": "function"
    },
    {
      "inputs": [
        {
          "internalType": "uint256",
          "name": "tokenId",
          "type": "uint256"
        }
      ],
      "name": "getApproved",
      "outputs": [
        {
          "internalType": "address",
          "name": "",
          "type": "address"
        }
      ],
      "stateMutability": "view",
      "type": "function"
    },
    {
      "inputs": [
        {
          "internalType": "address",
          "name": "owner",
          "type": "address"
        }
      ],
      "name": "getTokensByOwner",
      "outputs": [
        {
          "internalType": "uint256[]",
          "name": "",
          "type": "uint256[]"
        }
      ],
      "stateMutability": "view",
      "type": "function"
    },
    {
      "inputs": [
        {
          "internalType": "address",
          "name": "owner",
          "type": "address"
        }
      ],
      "name": "getTokensMetadataByOwner",
      "outputs": [
        {
          "components": [
            {
              "internalType": "uint256",
              "name": "tokenId",
              "type": "uint256"
            },
            {
              "internalType": "string",
              "name": "metadata",
              "type": "string"
            }
          ],
          "internalType": "struct NewCollection.TokenMetadata[]",
          "name": "",
          "type": "tuple[]"
        }
      ],
      "stateMutability": "view",
      "type": "function"
    },
    {
      "inputs": [
        {
          "internalType": "address",
          "name": "owner",
          "type": "address"
        },
        {
          "internalType": "address",
          "name": "operator",
          "type": "address"
        }
      ],
      "name": "isApprovedForAll",
      "outputs": [
        {
          "internalType": "bool",
          "name": "",
          "type": "bool"
        }
      ],
      "stateMutability": "view",
      "type": "function"
    },
    {
      "inputs": [
        {
          "internalType": "address",
          "name": "recipient",
          "type": "address"
        },
        {
          "internalType": "string",
          "name": "_tokenURI",
          "type": "string"
        }
      ],
      "name": "mintNFT",
      "outputs": [],
      "stateMutability": "nonpayable",
      "type": "function"
    },
    {
      "inputs": [],
      "name": "name",
      "outputs": [
        {
          "internalType": "string",
          "name": "",
          "type": "string"
        }
      ],
      "stateMutability": "view",
      "type": "function"
    },
    {
      "inputs": [],
      "name": "owner",
      "outputs": [
        {
          "internalType": "address",
          "name": "",
          "type": "address"
        }
      ],
      "stateMutability": "view",
      "type": "function"
    },
    {
      "inputs": [
        {
          "internalType": "uint256",
          "name": "tokenId",
          "type": "uint256"
        }
      ],
      "name": "ownerOf",
      "outputs": [
        {
          "internalType": "address",
          "name": "",
          "type": "address"
        }
      ],
      "stateMutability": "view",
      "type": "function"
    },
    {
      "inputs": [],
      "name": "renounceOwnership",
      "outputs": [],
      "stateMutability": "nonpayable",
      "type": "function"
    },
    {
      "inputs": [
        {
          "internalType": "address",
          "name": "from",
          "type": "address"
        },
        {
          "internalType": "address",
          "name": "to",
          "type": "address"
        },
        {
          "internalType": "uint256",
          "name": "tokenId",
          "type": "uint256"
        }
      ],
      "name": "safeTransferFrom",
      "outputs": [],
      "stateMutability": "nonpayable",
      "type": "function"
    },
    {
      "inputs": [
        {
          "internalType": "address",
          "name": "from",
          "type": "address"
        },
        {
          "internalType": "address",
          "name": "to",
          "type": "address"
        },
        {
          "internalType": "uint256",
          "name": "tokenId",
          "type": "uint256"
        },
        {
          "internalType": "bytes",
          "name": "data",
          "type": "bytes"
        }
      ],
      "name": "safeTransferFrom",
      "outputs": [],
      "stateMutability": "nonpayable",
      "type": "function"
    },
    {
      "inputs": [
        {
          "internalType": "address",
          "name": "operator",
          "type": "address"
        },
        {
          "internalType": "bool",
          "name": "approved",
          "type": "bool"
        }
      ],
      "name": "setApprovalForAll",
      "outputs": [],
      "stateMutability": "nonpayable",
      "type": "function"
    },
    {
      "inputs": [
        {
          "internalType": "bytes4",
          "name": "interfaceId",
          "type": "bytes4"
        }
      ],
      "name": "supportsInterface",
      "outputs": [
        {
          "internalType": "bool",
          "name": "",
          "type": "bool"
        }
      ],
      "stateMutability": "view",
      "type": "function"
    },
    {
      "inputs": [],
      "name": "symbol",
      "outputs": [
        {
          "internalType": "string",
          "name": "",
          "type": "string"
        }
      ],
      "stateMutability": "view",
      "type": "function"
    },
    {
      "inputs": [
        {
          "internalType": "uint256",
          "name": "index",
          "type": "uint256"
        }
      ],
      "name": "tokenByIndex",
      "outputs": [
        {
          "internalType": "uint256",
          "name": "",
          "type": "uint256"
        }
      ],
      "stateMutability": "view",
      "type": "function"
    },
    {
      "inputs": [
        {
          "internalType": "address",
          "name": "owner",
          "type": "address"
        },
        {
          "internalType": "uint256",
          "name": "index",
          "type": "uint256"
        }
      ],
      "name": "tokenOfOwnerByIndex",
      "outputs": [
        {
          "internalType": "uint256",
          "name": "",
          "type": "uint256"
        }
      ],
      "stateMutability": "view",
      "type": "function"
    },
    {
      "inputs": [
        {
          "internalType": "uint256",
          "name": "tokenId",
          "type": "uint256"
        }
      ],
      "name": "tokenURI",
      "outputs": [
        {
          "internalType": "string",
          "name": "",
          "type": "string"
        }
      ],
      "stateMutability": "view",
      "type": "function"
    },
    {
      "inputs": [],
      "name": "totalSupply",
      "outputs": [
        {
          "internalType": "uint256",
          "name": "",
          "type": "uint256"
        }
      ],
      "stateMutability": "view",
      "type": "function"
    },
    {
      "inputs": [
        {
          "internalType": "address",
          "name": "from",
          "type": "address"
        },
        {
          "internalType": "address",
          "name": "to",
          "type": "address"
        },
        {
          "internalType": "uint256",
          "name": "tokenId",
          "type": "uint256"
        }
      ],
      "name": "transferFrom",
      "outputs": [],
      "stateMutability": "nonpayable",
      "type": "function"
    },
    {
      "inputs": [
        {
          "internalType": "address",
          "name": "newOwner",
          "type": "address"
        }
      ],
      "name": "transferOwnership",
      "outputs": [],
      "stateMutability": "nonpayable",
      "type": "function"
    }
  ],
  "bytecode": "0x60806040523480156200001157600080fd5b5060405162003a1938038062003a198339818101604052810190620000379190620003b6565b80838381600090816200004b91906200069b565b5080600190816200005d91906200069b565b505050600073ffffffffffffffffffffffffffffffffffffffff168173ffffffffffffffffffffffffffffffffffffffff1603620000d55760006040517f1e4fbdf7000000000000000000000000000000000000000000000000000000008152600401620000cc919062000793565b60405180910390fd5b620000e681620000f860201b60201c565b506000600c81905550505050620007b0565b6000600b60009054906101000a900473ffffffffffffffffffffffffffffffffffffffff16905081600b60006101000a81548173ffffffffffffffffffffffffffffffffffffffff021916908373ffffffffffffffffffffffffffffffffffffffff1602179055508173ffffffffffffffffffffffffffffffffffffffff168173ffffffffffffffffffffffffffffffffffffffff167f8be0079c531659141344cd1fd0a4f28419497f9722a3daafe3b4186f6b6457e060405160405180910390a35050565b6000604051905090565b600080fd5b600080fd5b600080fd5b600080fd5b6000601f19601f8301169050919050565b7f4e487b7100000000000000000000000000000000000000000000000000000000600052604160045260246000fd5b6200022782620001dc565b810181811067ffffffffffffffff82111715620002495762000248620001ed565b5b80604052505050565b60006200025e620001be565b90506200026c82826200021c565b919050565b600067ffffffffffffffff8211156200028f576200028e620001ed565b5b6200029a82620001dc565b9050602081019050919050565b60005b83811015620002c7578082015181840152602081019050620002aa565b60008484015250505050565b6000620002ea620002e48462000271565b62000252565b905082815260208101848484011115620003095762000308620001d7565b5b62000316848285620002a7565b509392505050565b600082601f830112620003365762000335620001d2565b5b815162000348848260208601620002d3565b91505092915050565b600073ffffffffffffffffffffffffffffffffffffffff82169050919050565b60006200037e8262000351565b9050919050565b620003908162000371565b81146200039c57600080fd5b50565b600081519050620003b08162000385565b92915050565b600080600060608486031215620003d257620003d1620001c8565b5b600084015167ffffffffffffffff811115620003f357620003f2620001cd565b5b62000401868287016200031e565b935050602084015167ffffffffffffffff811115620004255762000424620001cd565b5b62000433868287016200031e565b925050604062000446868287016200039f565b9150509250925092565b600081519050919050565b7f4e487b7100000000000000000000000000000000000000000000000000000000600052602260045260246000fd5b60006002820490506001821680620004a357607f821691505b602082108103620004b957620004b86200045b565b5b50919050565b60008190508160005260206000209050919050565b60006020601f8301049050919050565b600082821b905092915050565b600060088302620005237fffffffffffffffffffffffffffffffffffffffffffffffffffffffffffffffff82620004e4565b6200052f8683620004e4565b95508019841693508086168417925050509392505050565b6000819050919050565b6000819050919050565b60006200057c62000576620005708462000547565b62000551565b62000547565b9050919050565b6000819050919050565b62000598836200055b565b620005b0620005a78262000583565b848454620004f1565b825550505050565b600090565b620005c7620005b8565b620005d48184846200058d565b505050565b5b81811015620005fc57620005f0600082620005bd565b600181019050620005da565b5050565b601f8211156200064b576200061581620004bf565b6200062084620004d4565b8101602085101562000630578190505b620006486200063f85620004d4565b830182620005d9565b50505b505050565b600082821c905092915050565b6000620006706000198460080262000650565b1980831691505092915050565b60006200068b83836200065d565b9150826002028217905092915050565b620006a68262000450565b67ffffffffffffffff811115620006c257620006c1620001ed565b5b620006ce82546200048a565b620006db82828562000600565b600060209050601f831160018114620007135760008415620006fe578287015190505b6200070a85826200067d565b8655506200077a565b601f1984166200072386620004bf565b60005b828110156200074d5784890151825560018201915060208501945060208101905062000726565b868310156200076d578489015162000769601f8916826200065d565b8355505b6001600288020188555050505b505050505050565b6200078d8162000371565b82525050565b6000602082019050620007aa600083018462000782565b92915050565b61325980620007c06000396000f3fe608060405234801561001057600080fd5b506004361061014d5760003560e01c80636352211e116100c3578063a22cb4651161007c578063a22cb465146103c4578063b88d4fde146103e0578063c87b56dd146103fc578063e985e9c51461042c578063eacabe141461045c578063f2fde38b146104785761014d565b80636352211e146102ee57806370a082311461031e578063715018a61461034e5780638a3a5d65146103585780638da5cb5b1461038857806395d89b41146103a65761014d565b806323b872dd1161011557806323b872dd1461020a5780632f745c591461022657806340398d671461025657806342842e0e1461028657806342966c68146102a25780634f6ccce7146102be5761014d565b806301ffc9a71461015257806306fdde0314610182578063081812fc146101a0578063095ea7b3146101d057806318160ddd146101ec575b600080fd5b61016c600480360381019061016791906123d4565b610494565b604051610179919061241c565b60405180910390f35b61018a6104a6565b60405161019791906124c7565b60405180910390f35b6101ba60048036038101906101b5919061251f565b610538565b6040516101c7919061258d565b60405180910390f35b6101ea60048036038101906101e591906125d4565b610554565b005b6101f461056a565b6040516102019190612623565b60405180910390f35b610224600480360381019061021f919061263e565b610577565b005b610240600480360381019061023b91906125d4565b610679565b60405161024d9190612623565b60405180910390f35b610270600480360381019061026b9190612691565b610722565b60405161027d919061277c565b60405180910390f35b6102a0600480360381019061029b919061263e565b61080f565b005b6102bc60048036038101906102b7919061251f565b61082f565b005b6102d860048036038101906102d3919061251f565b610846565b6040516102e59190612623565b60405180910390f35b6103086004803603810190610303919061251f565b6108bc565b604051610315919061258d565b60405180910390f35b61033860048036038101906103339190612691565b6108ce565b6040516103459190612623565b60405180910390f35b610356610988565b005b610372600480360381019061036d9190612691565b61099c565b60405161037f91906128e7565b60405180910390f35b610390610a97565b60405161039d919061258d565b60405180910390f35b6103ae610ac1565b6040516103bb91906124c7565b60405180910390f35b6103de60048036038101906103d99190612935565b610b53565b005b6103fa60048036038101906103f59190612aaa565b610b69565b005b6104166004803603810190610411919061251f565b610b86565b60405161042391906124c7565b60405180910390f35b61044660048036038101906104419190612b2d565b610b98565b604051610453919061241c565b60405180910390f35b61047660048036038101906104719190612c0e565b610c2c565b005b610492600480360381019061048d9190612691565b610c6c565b005b600061049f82610cf2565b9050919050565b6060600080546104b590612c99565b80601f01602080910402602001604051908101604052809291908181526020018280546104e190612c99565b801561052e5780601f106105035761010080835404028352916020019161052e565b820191906000526020600020905b81548152906001019060200180831161051157829003601f168201915b5050505050905090565b600061054382610d53565b5061054d82610ddb565b9050919050565b6105668282610561610e18565b610e20565b5050565b6000600880549050905090565b600073ffffffffffffffffffffffffffffffffffffffff168273ffffffffffffffffffffffffffffffffffffffff16036105e95760006040517f64a0ae920000000000000000000000000000000000000000000000000000000081526004016105e0919061258d565b60405180910390fd5b60006105fd83836105f8610e18565b610e32565b90508373ffffffffffffffffffffffffffffffffffffffff168173ffffffffffffffffffffffffffffffffffffffff1614610673578382826040517f64283d7b00000000000000000000000000000000000000000000000000000000815260040161066a93929190612cca565b60405180910390fd5b50505050565b6000610684836108ce565b82106106c95782826040517fa57d13dc0000000000000000000000000000000000000000000000000000000081526004016106c0929190612d01565b60405180910390fd5b600660008473ffffffffffffffffffffffffffffffffffffffff1673ffffffffffffffffffffffffffffffffffffffff168152602001908152602001600020600083815260200190815260200160002054905092915050565b6060600061072f836108ce565b905060008167ffffffffffffffff81111561074d5761074c61297f565b5b60405190808252806020026020018201604052801561077b5781602001602082028036833780820191505090505b5090506000805b600c54811015610803578573ffffffffffffffffffffffffffffffffffffffff166107ac826108bc565b73ffffffffffffffffffffffffffffffffffffffff16036107f657808383815181106107db576107da612d2a565b5b60200260200101818152505081806107f290612d88565b9250505b8080600101915050610782565b50819350505050919050565b61082a83838360405180602001604052806000815250610b69565b505050565b61084260008261083d610e18565b610e32565b5050565b600061085061056a565b8210610896576000826040517fa57d13dc00000000000000000000000000000000000000000000000000000000815260040161088d929190612d01565b60405180910390fd5b600882815481106108aa576108a9612d2a565b5b90600052602060002001549050919050565b60006108c782610d53565b9050919050565b60008073ffffffffffffffffffffffffffffffffffffffff168273ffffffffffffffffffffffffffffffffffffffff16036109415760006040517f89c62b64000000000000000000000000000000000000000000000000000000008152600401610938919061258d565b60405180910390fd5b600360008373ffffffffffffffffffffffffffffffffffffffff1673ffffffffffffffffffffffffffffffffffffffff168152602001908152602001600020549050919050565b610990610e48565b61099a6000610ecf565b565b606060006109a983610722565b90506000815167ffffffffffffffff8111156109c8576109c761297f565b5b604051908082528060200260200182016040528015610a0157816020015b6109ee61234e565b8152602001906001900390816109e65790505b50905060005b8251811015610a8c576040518060400160405280848381518110610a2e57610a2d612d2a565b5b60200260200101518152602001610a5e858481518110610a5157610a50612d2a565b5b6020026020010151610b86565b815250828281518110610a7457610a73612d2a565b5b60200260200101819052508080600101915050610a07565b508092505050919050565b6000600b60009054906101000a900473ffffffffffffffffffffffffffffffffffffffff16905090565b606060018054610ad090612c99565b80601f0160208091040260200160405190810160405280929190818152602001828054610afc90612c99565b8015610b495780601f10610b1e57610100808354040283529160200191610b49565b820191906000526020600020905b815481529060010190602001808311610b2c57829003601f168201915b5050505050905090565b610b65610b5e610e18565b8383610f95565b5050565b610b74848484610577565b610b8084848484611104565b50505050565b6060610b91826112bb565b9050919050565b6000600560008473ffffffffffffffffffffffffffffffffffffffff1673ffffffffffffffffffffffffffffffffffffffff16815260200190815260200160002060008373ffffffffffffffffffffffffffffffffffffffff1673ffffffffffffffffffffffffffffffffffffffff16815260200190815260200160002060009054906101000a900460ff16905092915050565b610c34610e48565b6000600c549050610c4583826113ce565b610c4f81836114c7565b600c6000815480929190610c6290612d88565b9190505550505050565b610c74610e48565b600073ffffffffffffffffffffffffffffffffffffffff168173ffffffffffffffffffffffffffffffffffffffff1603610ce65760006040517f1e4fbdf7000000000000000000000000000000000000000000000000000000008152600401610cdd919061258d565b60405180910390fd5b610cef81610ecf565b50565b6000634906490660e01b7bffffffffffffffffffffffffffffffffffffffffffffffffffffffff1916827bffffffffffffffffffffffffffffffffffffffffffffffffffffffff19161480610d4c5750610d4b82611523565b5b9050919050565b600080610d5f8361159d565b9050600073ffffffffffffffffffffffffffffffffffffffff168173ffffffffffffffffffffffffffffffffffffffff1603610dd257826040517f7e273289000000000000000000000000000000000000000000000000000000008152600401610dc99190612623565b60405180910390fd5b80915050919050565b60006004600083815260200190815260200160002060009054906101000a900473ffffffffffffffffffffffffffffffffffffffff169050919050565b600033905090565b610e2d83838360016115da565b505050565b6000610e3f84848461179f565b90509392505050565b610e50610e18565b73ffffffffffffffffffffffffffffffffffffffff16610e6e610a97565b73ffffffffffffffffffffffffffffffffffffffff1614610ecd57610e91610e18565b6040517f118cdaa7000000000000000000000000000000000000000000000000000000008152600401610ec4919061258d565b60405180910390fd5b565b6000600b60009054906101000a900473ffffffffffffffffffffffffffffffffffffffff16905081600b60006101000a81548173ffffffffffffffffffffffffffffffffffffffff021916908373ffffffffffffffffffffffffffffffffffffffff1602179055508173ffffffffffffffffffffffffffffffffffffffff168173ffffffffffffffffffffffffffffffffffffffff167f8be0079c531659141344cd1fd0a4f28419497f9722a3daafe3b4186f6b6457e060405160405180910390a35050565b600073ffffffffffffffffffffffffffffffffffffffff168273ffffffffffffffffffffffffffffffffffffffff160361100657816040517f5b08ba18000000000000000000000000000000000000000000000000000000008152600401610ffd919061258d565b60405180910390fd5b80600560008573ffffffffffffffffffffffffffffffffffffffff1673ffffffffffffffffffffffffffffffffffffffff16815260200190815260200160002060008473ffffffffffffffffffffffffffffffffffffffff1673ffffffffffffffffffffffffffffffffffffffff16815260200190815260200160002060006101000a81548160ff0219169083151502179055508173ffffffffffffffffffffffffffffffffffffffff168373ffffffffffffffffffffffffffffffffffffffff167f17307eab39ab6107e8899845ad3d59bd9653f200f220920489ca2b5937696c31836040516110f7919061241c565b60405180910390a3505050565b60008373ffffffffffffffffffffffffffffffffffffffff163b11156112b5578273ffffffffffffffffffffffffffffffffffffffff1663150b7a02611148610e18565b8685856040518563ffffffff1660e01b815260040161116a9493929190612e25565b6020604051808303816000875af19250505080156111a657506040513d601f19601f820116820180604052508101906111a39190612e86565b60015b61122a573d80600081146111d6576040519150601f19603f3d011682016040523d82523d6000602084013e6111db565b606091505b50600081510361122257836040517f64a0ae92000000000000000000000000000000000000000000000000000000008152600401611219919061258d565b60405180910390fd5b805181602001fd5b63150b7a0260e01b7bffffffffffffffffffffffffffffffffffffffffffffffffffffffff1916817bffffffffffffffffffffffffffffffffffffffffffffffffffffffff1916146112b357836040517f64a0ae920000000000000000000000000000000000000000000000000000000081526004016112aa919061258d565b60405180910390fd5b505b50505050565b60606112c682610d53565b506000600a600084815260200190815260200160002080546112e790612c99565b80601f016020809104026020016040519081016040528092919081815260200182805461131390612c99565b80156113605780601f1061133557610100808354040283529160200191611360565b820191906000526020600020905b81548152906001019060200180831161134357829003601f168201915b5050505050905060006113716118bc565b905060008151036113865781925050506113c9565b6000825111156113bb5780826040516020016113a3929190612eef565b604051602081830303815290604052925050506113c9565b6113c4846118d3565b925050505b919050565b600073ffffffffffffffffffffffffffffffffffffffff168273ffffffffffffffffffffffffffffffffffffffff16036114405760006040517f64a0ae92000000000000000000000000000000000000000000000000000000008152600401611437919061258d565b60405180910390fd5b600061144e83836000610e32565b9050600073ffffffffffffffffffffffffffffffffffffffff168173ffffffffffffffffffffffffffffffffffffffff16146114c25760006040517f73c6ac6e0000000000000000000000000000000000000000000000000000000081526004016114b9919061258d565b60405180910390fd5b505050565b80600a600084815260200190815260200160002090816114e791906130bf565b507ff8e1a15aba9398e019f0b49df1a4fde98ee17ae345cb5f6b5e2c27f5033e8ce7826040516115179190612623565b60405180910390a15050565b60007f780e9d63000000000000000000000000000000000000000000000000000000007bffffffffffffffffffffffffffffffffffffffffffffffffffffffff1916827bffffffffffffffffffffffffffffffffffffffffffffffffffffffff1916148061159657506115958261193c565b5b9050919050565b60006002600083815260200190815260200160002060009054906101000a900473ffffffffffffffffffffffffffffffffffffffff169050919050565b80806116135750600073ffffffffffffffffffffffffffffffffffffffff168273ffffffffffffffffffffffffffffffffffffffff1614155b1561174757600061162384610d53565b9050600073ffffffffffffffffffffffffffffffffffffffff168373ffffffffffffffffffffffffffffffffffffffff161415801561168e57508273ffffffffffffffffffffffffffffffffffffffff168173ffffffffffffffffffffffffffffffffffffffff1614155b80156116a1575061169f8184610b98565b155b156116e357826040517fa9fbf51f0000000000000000000000000000000000000000000000000000000081526004016116da919061258d565b60405180910390fd5b811561174557838573ffffffffffffffffffffffffffffffffffffffff168273ffffffffffffffffffffffffffffffffffffffff167f8c5be1e5ebec7d5bd14f71427d1e84f3dd0314c0f7b2291e5b200ac8c7c3b92560405160405180910390a45b505b836004600085815260200190815260200160002060006101000a81548173ffffffffffffffffffffffffffffffffffffffff021916908373ffffffffffffffffffffffffffffffffffffffff16021790555050505050565b6000806117ad858585611a1e565b9050600073ffffffffffffffffffffffffffffffffffffffff168173ffffffffffffffffffffffffffffffffffffffff16036117f1576117ec84611c38565b611830565b8473ffffffffffffffffffffffffffffffffffffffff168173ffffffffffffffffffffffffffffffffffffffff161461182f5761182e8185611c81565b5b5b600073ffffffffffffffffffffffffffffffffffffffff168573ffffffffffffffffffffffffffffffffffffffff16036118725761186d84611de2565b6118b1565b8473ffffffffffffffffffffffffffffffffffffffff168173ffffffffffffffffffffffffffffffffffffffff16146118b0576118af8585611eb3565b5b5b809150509392505050565b606060405180602001604052806000815250905090565b60606118de82610d53565b5060006118e96118bc565b905060008151116119095760405180602001604052806000815250611934565b8061191384611f3e565b604051602001611924929190612eef565b6040516020818303038152906040525b915050919050565b60007f80ac58cd000000000000000000000000000000000000000000000000000000007bffffffffffffffffffffffffffffffffffffffffffffffffffffffff1916827bffffffffffffffffffffffffffffffffffffffffffffffffffffffff19161480611a0757507f5b5e139f000000000000000000000000000000000000000000000000000000007bffffffffffffffffffffffffffffffffffffffffffffffffffffffff1916827bffffffffffffffffffffffffffffffffffffffffffffffffffffffff1916145b80611a175750611a168261200c565b5b9050919050565b600080611a2a8461159d565b9050600073ffffffffffffffffffffffffffffffffffffffff168373ffffffffffffffffffffffffffffffffffffffff1614611a6c57611a6b818486612076565b5b600073ffffffffffffffffffffffffffffffffffffffff168173ffffffffffffffffffffffffffffffffffffffff1614611afd57611aae6000856000806115da565b6001600360008373ffffffffffffffffffffffffffffffffffffffff1673ffffffffffffffffffffffffffffffffffffffff168152602001908152602001600020600082825403925050819055505b600073ffffffffffffffffffffffffffffffffffffffff168573ffffffffffffffffffffffffffffffffffffffff1614611b80576001600360008773ffffffffffffffffffffffffffffffffffffffff1673ffffffffffffffffffffffffffffffffffffffff168152602001908152602001600020600082825401925050819055505b846002600086815260200190815260200160002060006101000a81548173ffffffffffffffffffffffffffffffffffffffff021916908373ffffffffffffffffffffffffffffffffffffffff160217905550838573ffffffffffffffffffffffffffffffffffffffff168273ffffffffffffffffffffffffffffffffffffffff167fddf252ad1be2c89b69c2b068fc378daa952ba7f163c4a11628f55a4df523b3ef60405160405180910390a4809150509392505050565b6008805490506009600083815260200190815260200160002081905550600881908060018154018082558091505060019003906000526020600020016000909190919091505550565b6000611c8c836108ce565b9050600060076000848152602001908152602001600020549050818114611d71576000600660008673ffffffffffffffffffffffffffffffffffffffff1673ffffffffffffffffffffffffffffffffffffffff168152602001908152602001600020600084815260200190815260200160002054905080600660008773ffffffffffffffffffffffffffffffffffffffff1673ffffffffffffffffffffffffffffffffffffffff168152602001908152602001600020600084815260200190815260200160002081905550816007600083815260200190815260200160002081905550505b6007600084815260200190815260200160002060009055600660008573ffffffffffffffffffffffffffffffffffffffff1673ffffffffffffffffffffffffffffffffffffffff16815260200190815260200160002060008381526020019081526020016000206000905550505050565b60006001600880549050611df69190613191565b9050600060096000848152602001908152602001600020549050600060088381548110611e2657611e25612d2a565b5b906000526020600020015490508060088381548110611e4857611e47612d2a565b5b906000526020600020018190555081600960008381526020019081526020016000208190555060096000858152602001908152602001600020600090556008805480611e9757611e966131c5565b5b6001900381819060005260206000200160009055905550505050565b60006001611ec0846108ce565b611eca9190613191565b905081600660008573ffffffffffffffffffffffffffffffffffffffff1673ffffffffffffffffffffffffffffffffffffffff168152602001908152602001600020600083815260200190815260200160002081905550806007600084815260200190815260200160002081905550505050565b606060006001611f4d8461213a565b01905060008167ffffffffffffffff811115611f6c57611f6b61297f565b5b6040519080825280601f01601f191660200182016040528015611f9e5781602001600182028036833780820191505090505b509050600082602001820190505b600115612001578080600190039150507f3031323334353637383961626364656600000000000000000000000000000000600a86061a8153600a8581611ff557611ff46131f4565b5b04945060008503611fac575b819350505050919050565b60007f01ffc9a7000000000000000000000000000000000000000000000000000000007bffffffffffffffffffffffffffffffffffffffffffffffffffffffff1916827bffffffffffffffffffffffffffffffffffffffffffffffffffffffff1916149050919050565b61208183838361228d565b61213557600073ffffffffffffffffffffffffffffffffffffffff168373ffffffffffffffffffffffffffffffffffffffff16036120f657806040517f7e2732890000000000000000000000000000000000000000000000000000000081526004016120ed9190612623565b60405180910390fd5b81816040517f177e802f00000000000000000000000000000000000000000000000000000000815260040161212c929190612d01565b60405180910390fd5b505050565b600080600090507a184f03e93ff9f4daa797ed6e38ed64bf6a1f0100000000000000008310612198577a184f03e93ff9f4daa797ed6e38ed64bf6a1f010000000000000000838161218e5761218d6131f4565b5b0492506040810190505b6d04ee2d6d415b85acef810000000083106121d5576d04ee2d6d415b85acef810000000083816121cb576121ca6131f4565b5b0492506020810190505b662386f26fc10000831061220457662386f26fc1000083816121fa576121f96131f4565b5b0492506010810190505b6305f5e100831061222d576305f5e1008381612223576122226131f4565b5b0492506008810190505b6127108310612252576127108381612248576122476131f4565b5b0492506004810190505b60648310612275576064838161226b5761226a6131f4565b5b0492506002810190505b600a8310612284576001810190505b80915050919050565b60008073ffffffffffffffffffffffffffffffffffffffff168373ffffffffffffffffffffffffffffffffffffffff161415801561234557508273ffffffffffffffffffffffffffffffffffffffff168473ffffffffffffffffffffffffffffffffffffffff16148061230657506123058484610b98565b5b8061234457508273ffffffffffffffffffffffffffffffffffffffff1661232c83610ddb565b73ffffffffffffffffffffffffffffffffffffffff16145b5b90509392505050565b604051806040016040528060008152602001606081525090565b6000604051905090565b600080fd5b600080fd5b60007fffffffff0000000000000000000000000000000000000000000000000000000082169050919050565b6123b18161237c565b81146123bc57600080fd5b50565b6000813590506123ce816123a8565b92915050565b6000602082840312156123ea576123e9612372565b5b60006123f8848285016123bf565b91505092915050565b60008115159050919050565b61241681612401565b82525050565b6000602082019050612431600083018461240d565b92915050565b600081519050919050565b600082825260208201905092915050565b60005b83811015612471578082015181840152602081019050612456565b60008484015250505050565b6000601f19601f8301169050919050565b600061249982612437565b6124a38185612442565b93506124b3818560208601612453565b6124bc8161247d565b840191505092915050565b600060208201905081810360008301526124e1818461248e565b905092915050565b6000819050919050565b6124fc816124e9565b811461250757600080fd5b50565b600081359050612519816124f3565b92915050565b60006020828403121561253557612534612372565b5b60006125438482850161250a565b91505092915050565b600073ffffffffffffffffffffffffffffffffffffffff82169050919050565b60006125778261254c565b9050919050565b6125878161256c565b82525050565b60006020820190506125a2600083018461257e565b92915050565b6125b18161256c565b81146125bc57600080fd5b50565b6000813590506125ce816125a8565b92915050565b600080604083850312156125eb576125ea612372565b5b60006125f9858286016125bf565b925050602061260a8582860161250a565b9150509250929050565b61261d816124e9565b82525050565b60006020820190506126386000830184612614565b92915050565b60008060006060848603121561265757612656612372565b5b6000612665868287016125bf565b9350506020612676868287016125bf565b92505060406126878682870161250a565b9150509250925092565b6000602082840312156126a7576126a6612372565b5b60006126b5848285016125bf565b91505092915050565b600081519050919050565b600082825260208201905092915050565b6000819050602082019050919050565b6126f3816124e9565b82525050565b600061270583836126ea565b60208301905092915050565b6000602082019050919050565b6000612729826126be565b61273381856126c9565b935061273e836126da565b8060005b8381101561276f57815161275688826126f9565b975061276183612711565b925050600181019050612742565b5085935050505092915050565b60006020820190508181036000830152612796818461271e565b905092915050565b600081519050919050565b600082825260208201905092915050565b6000819050602082019050919050565b600082825260208201905092915050565b60006127e682612437565b6127f081856127ca565b9350612800818560208601612453565b6128098161247d565b840191505092915050565b600060408301600083015161282c60008601826126ea565b506020830151848203602086015261284482826127db565b9150508091505092915050565b600061285d8383612814565b905092915050565b6000602082019050919050565b600061287d8261279e565b61288781856127a9565b935083602082028501612899856127ba565b8060005b858110156128d557848403895281516128b68582612851565b94506128c183612865565b925060208a0199505060018101905061289d565b50829750879550505050505092915050565b600060208201905081810360008301526129018184612872565b905092915050565b61291281612401565b811461291d57600080fd5b50565b60008135905061292f81612909565b92915050565b6000806040838503121561294c5761294b612372565b5b600061295a858286016125bf565b925050602061296b85828601612920565b9150509250929050565b600080fd5b600080fd5b7f4e487b7100000000000000000000000000000000000000000000000000000000600052604160045260246000fd5b6129b78261247d565b810181811067ffffffffffffffff821117156129d6576129d561297f565b5b80604052505050565b60006129e9612368565b90506129f582826129ae565b919050565b600067ffffffffffffffff821115612a1557612a1461297f565b5b612a1e8261247d565b9050602081019050919050565b82818337600083830152505050565b6000612a4d612a48846129fa565b6129df565b905082815260208101848484011115612a6957612a6861297a565b5b612a74848285612a2b565b509392505050565b600082601f830112612a9157612a90612975565b5b8135612aa1848260208601612a3a565b91505092915050565b60008060008060808587031215612ac457612ac3612372565b5b6000612ad2878288016125bf565b9450506020612ae3878288016125bf565b9350506040612af48782880161250a565b925050606085013567ffffffffffffffff811115612b1557612b14612377565b5b612b2187828801612a7c565b91505092959194509250565b60008060408385031215612b4457612b43612372565b5b6000612b52858286016125bf565b9250506020612b63858286016125bf565b9150509250929050565b600067ffffffffffffffff821115612b8857612b8761297f565b5b612b918261247d565b9050602081019050919050565b6000612bb1612bac84612b6d565b6129df565b905082815260208101848484011115612bcd57612bcc61297a565b5b612bd8848285612a2b565b509392505050565b600082601f830112612bf557612bf4612975565b5b8135612c05848260208601612b9e565b91505092915050565b60008060408385031215612c2557612c24612372565b5b6000612c33858286016125bf565b925050602083013567ffffffffffffffff811115612c5457612c53612377565b5b612c6085828601612be0565b9150509250929050565b7f4e487b7100000000000000000000000000000000000000000000000000000000600052602260045260246000fd5b60006002820490506001821680612cb157607f821691505b602082108103612cc457612cc3612c6a565b5b50919050565b6000606082019050612cdf600083018661257e565b612cec6020830185612614565b612cf9604083018461257e565b949350505050565b6000604082019050612d16600083018561257e565b612d236020830184612614565b9392505050565b7f4e487b7100000000000000000000000000000000000000000000000000000000600052603260045260246000fd5b7f4e487b7100000000000000000000000000000000000000000000000000000000600052601160045260246000fd5b6000612d93826124e9565b91507fffffffffffffffffffffffffffffffffffffffffffffffffffffffffffffffff8203612dc557612dc4612d59565b5b600182019050919050565b600081519050919050565b600082825260208201905092915050565b6000612df782612dd0565b612e018185612ddb565b9350612e11818560208601612453565b612e1a8161247d565b840191505092915050565b6000608082019050612e3a600083018761257e565b612e47602083018661257e565b612e546040830185612614565b8181036060830152612e668184612dec565b905095945050505050565b600081519050612e80816123a8565b92915050565b600060208284031215612e9c57612e9b612372565b5b6000612eaa84828501612e71565b91505092915050565b600081905092915050565b6000612ec982612437565b612ed38185612eb3565b9350612ee3818560208601612453565b80840191505092915050565b6000612efb8285612ebe565b9150612f078284612ebe565b91508190509392505050565b60008190508160005260206000209050919050565b60006020601f8301049050919050565b600082821b905092915050565b600060088302612f757fffffffffffffffffffffffffffffffffffffffffffffffffffffffffffffffff82612f38565b612f7f8683612f38565b95508019841693508086168417925050509392505050565b6000819050919050565b6000612fbc612fb7612fb2846124e9565b612f97565b6124e9565b9050919050565b6000819050919050565b612fd683612fa1565b612fea612fe282612fc3565b848454612f45565b825550505050565b600090565b612fff612ff2565b61300a818484612fcd565b505050565b5b8181101561302e57613023600082612ff7565b600181019050613010565b5050565b601f8211156130735761304481612f13565b61304d84612f28565b8101602085101561305c578190505b61307061306885612f28565b83018261300f565b50505b505050565b600082821c905092915050565b600061309660001984600802613078565b1980831691505092915050565b60006130af8383613085565b9150826002028217905092915050565b6130c882612437565b67ffffffffffffffff8111156130e1576130e061297f565b5b6130eb8254612c99565b6130f6828285613032565b600060209050601f8311600181146131295760008415613117578287015190505b61312185826130a3565b865550613189565b601f19841661313786612f13565b60005b8281101561315f5784890151825560018201915060208501945060208101905061313a565b8683101561317c5784890151613178601f891682613085565b8355505b6001600288020188555050505b505050505050565b600061319c826124e9565b91506131a7836124e9565b92508282039050818111156131bf576131be612d59565b5b92915050565b7f4e487b7100000000000000000000000000000000000000000000000000000000600052603160045260246000fd5b7f4e487b7100000000000000000000000000000000000000000000000000000000600052601260045260246000fdfea2646970667358221220b8f7104049794f21863ea1a2fad2ddbb76d6a5d206585fa6a629fa021346f22464736f6c63430008180033",
  "linkReferences": {},
  "deployedLinkReferences": {}
}